{
  "_format": "hh-sol-artifact-1",
  "contractName": "FF721",
  "sourceName": "contracts/FF721.sol",
  "abi": [
    {
      "inputs": [],
      "stateMutability": "nonpayable",
      "type": "constructor"
    },
    {
      "anonymous": false,
      "inputs": [
        {
          "indexed": true,
          "internalType": "address",
          "name": "owner",
          "type": "address"
        },
        {
          "indexed": true,
          "internalType": "address",
          "name": "approved",
          "type": "address"
        },
        {
          "indexed": true,
          "internalType": "uint256",
          "name": "tokenId",
          "type": "uint256"
        }
      ],
      "name": "Approval",
      "type": "event"
    },
    {
      "anonymous": false,
      "inputs": [
        {
          "indexed": true,
          "internalType": "address",
          "name": "owner",
          "type": "address"
        },
        {
          "indexed": true,
          "internalType": "address",
          "name": "operator",
          "type": "address"
        },
        {
          "indexed": false,
          "internalType": "bool",
          "name": "approved",
          "type": "bool"
        }
      ],
      "name": "ApprovalForAll",
      "type": "event"
    },
    {
      "anonymous": false,
      "inputs": [
        {
          "indexed": true,
          "internalType": "address",
          "name": "previousOwner",
          "type": "address"
        },
        {
          "indexed": true,
          "internalType": "address",
          "name": "newOwner",
          "type": "address"
        }
      ],
      "name": "OwnershipTransferred",
      "type": "event"
    },
    {
      "anonymous": false,
      "inputs": [
        {
          "indexed": true,
          "internalType": "bytes32",
          "name": "role",
          "type": "bytes32"
        },
        {
          "indexed": true,
          "internalType": "bytes32",
          "name": "previousAdminRole",
          "type": "bytes32"
        },
        {
          "indexed": true,
          "internalType": "bytes32",
          "name": "newAdminRole",
          "type": "bytes32"
        }
      ],
      "name": "RoleAdminChanged",
      "type": "event"
    },
    {
      "anonymous": false,
      "inputs": [
        {
          "indexed": true,
          "internalType": "bytes32",
          "name": "role",
          "type": "bytes32"
        },
        {
          "indexed": true,
          "internalType": "address",
          "name": "account",
          "type": "address"
        },
        {
          "indexed": true,
          "internalType": "address",
          "name": "sender",
          "type": "address"
        }
      ],
      "name": "RoleGranted",
      "type": "event"
    },
    {
      "anonymous": false,
      "inputs": [
        {
          "indexed": true,
          "internalType": "bytes32",
          "name": "role",
          "type": "bytes32"
        },
        {
          "indexed": true,
          "internalType": "address",
          "name": "account",
          "type": "address"
        },
        {
          "indexed": true,
          "internalType": "address",
          "name": "sender",
          "type": "address"
        }
      ],
      "name": "RoleRevoked",
      "type": "event"
    },
    {
      "anonymous": false,
      "inputs": [
        {
          "indexed": true,
          "internalType": "address",
          "name": "from",
          "type": "address"
        },
        {
          "indexed": true,
          "internalType": "address",
          "name": "to",
          "type": "address"
        },
        {
          "indexed": true,
          "internalType": "uint256",
          "name": "tokenId",
          "type": "uint256"
        }
      ],
      "name": "Transfer",
      "type": "event"
    },
    {
      "inputs": [],
      "name": "BURNER_ROLE",
      "outputs": [
        {
          "internalType": "bytes32",
          "name": "",
          "type": "bytes32"
        }
      ],
      "stateMutability": "view",
      "type": "function"
    },
    {
      "inputs": [],
      "name": "DEFAULT_ADMIN_ROLE",
      "outputs": [
        {
          "internalType": "bytes32",
          "name": "",
          "type": "bytes32"
        }
      ],
      "stateMutability": "view",
      "type": "function"
    },
    {
      "inputs": [],
      "name": "MINTER_ROLE",
      "outputs": [
        {
          "internalType": "bytes32",
          "name": "",
          "type": "bytes32"
        }
      ],
      "stateMutability": "view",
      "type": "function"
    },
    {
      "inputs": [],
      "name": "UPDATER_ROLE",
      "outputs": [
        {
          "internalType": "bytes32",
          "name": "",
          "type": "bytes32"
        }
      ],
      "stateMutability": "view",
      "type": "function"
    },
    {
      "inputs": [
        {
          "internalType": "address",
          "name": "to",
          "type": "address"
        },
        {
          "internalType": "uint256",
          "name": "tokenId",
          "type": "uint256"
        }
      ],
      "name": "approve",
      "outputs": [],
      "stateMutability": "nonpayable",
      "type": "function"
    },
    {
      "inputs": [
        {
          "internalType": "address",
          "name": "owner",
          "type": "address"
        }
      ],
      "name": "balanceOf",
      "outputs": [
        {
          "internalType": "uint256",
          "name": "",
          "type": "uint256"
        }
      ],
      "stateMutability": "view",
      "type": "function"
    },
    {
      "inputs": [],
      "name": "baseTokenURI",
      "outputs": [
        {
          "internalType": "string",
          "name": "",
          "type": "string"
        }
      ],
      "stateMutability": "view",
      "type": "function"
    },
    {
      "inputs": [
        {
          "internalType": "uint256",
          "name": "tokenId",
          "type": "uint256"
        }
      ],
      "name": "burn",
      "outputs": [],
      "stateMutability": "nonpayable",
      "type": "function"
    },
    {
      "inputs": [],
      "name": "contractURI",
      "outputs": [
        {
          "internalType": "string",
          "name": "",
          "type": "string"
        }
      ],
      "stateMutability": "view",
      "type": "function"
    },
    {
      "inputs": [
        {
          "internalType": "uint256",
          "name": "tokenId",
          "type": "uint256"
        }
      ],
      "name": "getApproved",
      "outputs": [
        {
          "internalType": "address",
          "name": "",
          "type": "address"
        }
      ],
      "stateMutability": "view",
      "type": "function"
    },
    {
      "inputs": [
        {
          "internalType": "bytes32",
          "name": "role",
          "type": "bytes32"
        }
      ],
      "name": "getRoleAdmin",
      "outputs": [
        {
          "internalType": "bytes32",
          "name": "",
          "type": "bytes32"
        }
      ],
      "stateMutability": "view",
      "type": "function"
    },
    {
      "inputs": [],
      "name": "getTokenIdCounter",
      "outputs": [
        {
          "internalType": "uint256",
          "name": "",
          "type": "uint256"
        }
      ],
      "stateMutability": "view",
      "type": "function"
    },
    {
      "inputs": [
        {
          "internalType": "bytes32",
          "name": "role",
          "type": "bytes32"
        },
        {
          "internalType": "address",
          "name": "account",
          "type": "address"
        }
      ],
      "name": "grantRole",
      "outputs": [],
      "stateMutability": "nonpayable",
      "type": "function"
    },
    {
      "inputs": [
        {
          "internalType": "bytes32",
          "name": "role",
          "type": "bytes32"
        },
        {
          "internalType": "address",
          "name": "account",
          "type": "address"
        }
      ],
      "name": "hasRole",
      "outputs": [
        {
          "internalType": "bool",
          "name": "",
          "type": "bool"
        }
      ],
      "stateMutability": "view",
      "type": "function"
    },
    {
      "inputs": [
        {
          "internalType": "address",
          "name": "owner",
          "type": "address"
        },
        {
          "internalType": "address",
          "name": "operator",
          "type": "address"
        }
      ],
      "name": "isApprovedForAll",
      "outputs": [
        {
          "internalType": "bool",
          "name": "",
          "type": "bool"
        }
      ],
      "stateMutability": "view",
      "type": "function"
    },
    {
      "inputs": [],
      "name": "name",
      "outputs": [
        {
          "internalType": "string",
          "name": "",
          "type": "string"
        }
      ],
      "stateMutability": "view",
      "type": "function"
    },
    {
      "inputs": [],
      "name": "owner",
      "outputs": [
        {
          "internalType": "address",
          "name": "",
          "type": "address"
        }
      ],
      "stateMutability": "view",
      "type": "function"
    },
    {
      "inputs": [
        {
          "internalType": "uint256",
          "name": "tokenId",
          "type": "uint256"
        }
      ],
      "name": "ownerOf",
      "outputs": [
        {
          "internalType": "address",
          "name": "",
          "type": "address"
        }
      ],
      "stateMutability": "view",
      "type": "function"
    },
    {
      "inputs": [],
      "name": "renounceOwnership",
      "outputs": [],
      "stateMutability": "nonpayable",
      "type": "function"
    },
    {
      "inputs": [
        {
          "internalType": "bytes32",
          "name": "role",
          "type": "bytes32"
        },
        {
          "internalType": "address",
          "name": "account",
          "type": "address"
        }
      ],
      "name": "renounceRole",
      "outputs": [],
      "stateMutability": "nonpayable",
      "type": "function"
    },
    {
      "inputs": [
        {
          "internalType": "bytes32",
          "name": "role",
          "type": "bytes32"
        },
        {
          "internalType": "address",
          "name": "account",
          "type": "address"
        }
      ],
      "name": "revokeRole",
      "outputs": [],
      "stateMutability": "nonpayable",
      "type": "function"
    },
    {
      "inputs": [
        {
          "internalType": "uint256",
          "name": "_tokenId",
          "type": "uint256"
        },
        {
          "internalType": "uint256",
          "name": "_salePrice",
          "type": "uint256"
        }
      ],
      "name": "royaltyInfo",
      "outputs": [
        {
          "internalType": "address",
          "name": "receiver",
          "type": "address"
        },
        {
          "internalType": "uint256",
          "name": "royaltyAmount",
          "type": "uint256"
        }
      ],
      "stateMutability": "view",
      "type": "function"
    },
    {
      "inputs": [
        {
          "internalType": "address",
          "name": "to",
          "type": "address"
        },
        {
          "internalType": "string",
          "name": "uri",
          "type": "string"
        }
      ],
      "name": "safeMint",
      "outputs": [],
      "stateMutability": "nonpayable",
      "type": "function"
    },
    {
      "inputs": [
        {
          "internalType": "address",
          "name": "from",
          "type": "address"
        },
        {
          "internalType": "address",
          "name": "to",
          "type": "address"
        },
        {
          "internalType": "uint256",
          "name": "tokenId",
          "type": "uint256"
        }
      ],
      "name": "safeTransferFrom",
      "outputs": [],
      "stateMutability": "nonpayable",
      "type": "function"
    },
    {
      "inputs": [
        {
          "internalType": "address",
          "name": "from",
          "type": "address"
        },
        {
          "internalType": "address",
          "name": "to",
          "type": "address"
        },
        {
          "internalType": "uint256",
          "name": "tokenId",
          "type": "uint256"
        },
        {
          "internalType": "bytes",
          "name": "_data",
          "type": "bytes"
        }
      ],
      "name": "safeTransferFrom",
      "outputs": [],
      "stateMutability": "nonpayable",
      "type": "function"
    },
    {
      "inputs": [
        {
          "internalType": "address",
          "name": "adr",
          "type": "address"
        }
      ],
      "name": "selfDestruct",
      "outputs": [],
      "stateMutability": "nonpayable",
      "type": "function"
    },
    {
      "inputs": [
        {
          "internalType": "address",
          "name": "operator",
          "type": "address"
        },
        {
          "internalType": "bool",
          "name": "approved",
          "type": "bool"
        }
      ],
      "name": "setApprovalForAll",
      "outputs": [],
      "stateMutability": "nonpayable",
      "type": "function"
    },
    {
      "inputs": [
        {
          "internalType": "address",
          "name": "newRecipient",
          "type": "address"
        },
        {
          "internalType": "uint256",
          "name": "newBasisPoints",
          "type": "uint256"
        }
      ],
      "name": "setRoyalties",
      "outputs": [],
      "stateMutability": "nonpayable",
      "type": "function"
    },
    {
      "inputs": [
        {
          "internalType": "bytes4",
          "name": "interfaceId",
          "type": "bytes4"
        }
      ],
      "name": "supportsInterface",
      "outputs": [
        {
          "internalType": "bool",
          "name": "",
          "type": "bool"
        }
      ],
      "stateMutability": "view",
      "type": "function"
    },
    {
      "inputs": [],
      "name": "symbol",
      "outputs": [
        {
          "internalType": "string",
          "name": "",
          "type": "string"
        }
      ],
      "stateMutability": "view",
      "type": "function"
    },
    {
      "inputs": [
        {
          "internalType": "uint256",
          "name": "tokenId",
          "type": "uint256"
        }
      ],
      "name": "tokenURI",
      "outputs": [
        {
          "internalType": "string",
          "name": "",
          "type": "string"
        }
      ],
      "stateMutability": "view",
      "type": "function"
    },
    {
      "inputs": [
        {
          "internalType": "address",
          "name": "from",
          "type": "address"
        },
        {
          "internalType": "address",
          "name": "to",
          "type": "address"
        },
        {
          "internalType": "uint256",
          "name": "tokenId",
          "type": "uint256"
        }
      ],
      "name": "transferFrom",
      "outputs": [],
      "stateMutability": "nonpayable",
      "type": "function"
    },
    {
      "inputs": [
        {
          "internalType": "address",
          "name": "newOwner",
          "type": "address"
        }
      ],
      "name": "transferOwnership",
      "outputs": [],
      "stateMutability": "nonpayable",
      "type": "function"
    },
    {
      "inputs": [
        {
          "internalType": "string",
          "name": "uri",
          "type": "string"
        }
      ],
      "name": "updateBaseTokenURI",
      "outputs": [],
      "stateMutability": "nonpayable",
      "type": "function"
    },
    {
      "inputs": [
        {
          "internalType": "string",
          "name": "uri",
          "type": "string"
        }
      ],
      "name": "updateContractURI",
      "outputs": [],
      "stateMutability": "nonpayable",
      "type": "function"
    },
    {
      "inputs": [
        {
          "internalType": "uint256",
          "name": "tokenId",
          "type": "uint256"
        },
        {
          "internalType": "string",
          "name": "_tokenURI",
          "type": "string"
        }
      ],
      "name": "updateTokenURI",
      "outputs": [],
      "stateMutability": "nonpayable",
      "type": "function"
    }
  ],
  "bytecode": "0x60806040526040518060800160405280604c815260200162004dcf604c913960099080519060200190620000359291906200046d565b506040518060800160405280605b815260200162004d74605b9139600a9080519060200190620000679291906200046d565b5073fdd72142ca8ce7dc492cde17557c16d8cbc17c1b600b60006101000a81548173ffffffffffffffffffffffffffffffffffffffff021916908373ffffffffffffffffffffffffffffffffffffffff1602179055506103e8600c55348015620000d057600080fd5b506040518060400160405280601181526020017f426974746572204b6f6d69782044656d6f0000000000000000000000000000008152506040518060400160405280600681526020017f4b423732314400000000000000000000000000000000000000000000000000008152508160009080519060200190620001559291906200046d565b5080600190805190602001906200016e9291906200046d565b50505062000191620001856200024260201b60201c565b6200024a60201b60201c565b620001a66000801b336200031060201b60201c565b620001d87f9f2df0fed2c77648de5860a4cc508cd0818c85b8b8a1ab4ceeef8d981c8956a6336200031060201b60201c565b6200020a7f3c11d16cbaffd01df69ce1c404f6340ee057498f5f00246190ea54220576a848336200031060201b60201c565b6200023c7f73e573f9566d61418a34d5de3ff49360f9c51fec37f7486551670290f6285dab336200031060201b60201c565b62000582565b600033905090565b6000600760009054906101000a900473ffffffffffffffffffffffffffffffffffffffff16905081600760006101000a81548173ffffffffffffffffffffffffffffffffffffffff021916908373ffffffffffffffffffffffffffffffffffffffff1602179055508173ffffffffffffffffffffffffffffffffffffffff168173ffffffffffffffffffffffffffffffffffffffff167f8be0079c531659141344cd1fd0a4f28419497f9722a3daafe3b4186f6b6457e060405160405180910390a35050565b6200032282826200040260201b60201c565b620003fe5760016008600084815260200190815260200160002060000160008373ffffffffffffffffffffffffffffffffffffffff1673ffffffffffffffffffffffffffffffffffffffff16815260200190815260200160002060006101000a81548160ff021916908315150217905550620003a36200024260201b60201c565b73ffffffffffffffffffffffffffffffffffffffff168173ffffffffffffffffffffffffffffffffffffffff16837f2f8788117e7eff1d82e926ec794901d17c78024a50270940304540a733656f0d60405160405180910390a45b5050565b60006008600084815260200190815260200160002060000160008373ffffffffffffffffffffffffffffffffffffffff1673ffffffffffffffffffffffffffffffffffffffff16815260200190815260200160002060009054906101000a900460ff16905092915050565b8280546200047b906200051d565b90600052602060002090601f0160209004810192826200049f5760008555620004eb565b82601f10620004ba57805160ff1916838001178555620004eb565b82800160010185558215620004eb579182015b82811115620004ea578251825591602001919060010190620004cd565b5b509050620004fa9190620004fe565b5090565b5b8082111562000519576000816000905550600101620004ff565b5090565b600060028204905060018216806200053657607f821691505b602082108114156200054d576200054c62000553565b5b50919050565b7f4e487b7100000000000000000000000000000000000000000000000000000000600052602260045260246000fd5b6147e280620005926000396000f3fe608060405234801561001057600080fd5b506004361061021c5760003560e01c8063715018a611610125578063c87b56dd116100ad578063d547cfb71161007c578063d547cfb714610622578063dbfd4b9814610640578063e8a3d4851461065e578063e985e9c51461067c578063f2fde38b146106ac5761021c565b8063c87b56dd1461059c578063d204c45e146105cc578063d5391393146105e8578063d547741f146106065761021c565b806391d14854116100f457806391d14854146104f857806395d89b4114610528578063a217fddf14610546578063a22cb46514610564578063b88d4fde146105805761021c565b8063715018a6146104985780637e5b1e24146104a25780638c7ea24b146104be5780638da5cb5b146104da5761021c565b80632f2ff15d116101a857806342966c681161017757806342966c68146103e257806347e63380146103fe5780636352211e1461041c578063655391c91461044c57806370a08231146104685761021c565b80632f2ff15d1461037257806336568abe1461038e5780633f5a0bdd146103aa57806342842e0e146103c65761021c565b806318e97fd1116101ef57806318e97fd1146102bb57806323b872dd146102d7578063248a9ca3146102f3578063282c51f3146103235780632a55205a146103415761021c565b806301ffc9a71461022157806306fdde0314610251578063081812fc1461026f578063095ea7b31461029f575b600080fd5b61023b60048036038101906102369190613303565b6106c8565b6040516102489190613961565b60405180910390f35b6102596108a9565b6040516102669190613997565b60405180910390f35b610289600480360381019061028491906133a6565b61093b565b60405161029691906138d1565b60405180910390f35b6102b960048036038101906102b49190613256565b6109c0565b005b6102d560048036038101906102d091906133d3565b610ad8565b005b6102f160048036038101906102ec91906130e4565b610b11565b005b61030d60048036038101906103089190613296565b610b71565b60405161031a919061397c565b60405180910390f35b61032b610b91565b604051610338919061397c565b60405180910390f35b61035b6004803603810190610356919061342f565b610bb5565b604051610369929190613938565b60405180910390f35b61038c600480360381019061038791906132c3565b610c18565b005b6103a860048036038101906103a391906132c3565b610c39565b005b6103c460048036038101906103bf9190613077565b610cbc565b005b6103e060048036038101906103db91906130e4565b610d51565b005b6103fc60048036038101906103f791906133a6565b610d71565b005b610406610da8565b604051610413919061397c565b60405180910390f35b610436600480360381019061043191906133a6565b610dcc565b60405161044391906138d1565b60405180910390f35b6104666004803603810190610461919061335d565b610e7e565b005b610482600480360381019061047d9190613077565b610ec3565b60405161048f9190613c59565b60405180910390f35b6104a0610f7b565b005b6104bc60048036038101906104b7919061335d565b611003565b005b6104d860048036038101906104d39190613256565b611048565b005b6104e26110d2565b6040516104ef91906138d1565b60405180910390f35b610512600480360381019061050d91906132c3565b6110fc565b60405161051f9190613961565b60405180910390f35b610530611167565b60405161053d9190613997565b60405180910390f35b61054e6111f9565b60405161055b919061397c565b60405180910390f35b61057e600480360381019061057991906131ba565b611200565b005b61059a60048036038101906105959190613137565b611216565b005b6105b660048036038101906105b191906133a6565b611278565b6040516105c39190613997565b60405180910390f35b6105e660048036038101906105e191906131fa565b61128a565b005b6105f06112e6565b6040516105fd919061397c565b60405180910390f35b610620600480360381019061061b91906132c3565b61130a565b005b61062a61132b565b6040516106379190613997565b60405180910390f35b6106486113bd565b6040516106559190613c59565b60405180910390f35b6106666113ce565b6040516106739190613997565b60405180910390f35b610696600480360381019061069191906130a4565b611460565b6040516106a39190613961565b60405180910390f35b6106c660048036038101906106c19190613077565b6114f4565b005b60007f2a55205a000000000000000000000000000000000000000000000000000000007bffffffffffffffffffffffffffffffffffffffffffffffffffffffff1916827bffffffffffffffffffffffffffffffffffffffffffffffffffffffff1916148061079357507f80ac58cd000000000000000000000000000000000000000000000000000000007bffffffffffffffffffffffffffffffffffffffffffffffffffffffff1916827bffffffffffffffffffffffffffffffffffffffffffffffffffffffff1916145b806107fb57507f01ffc9a7000000000000000000000000000000000000000000000000000000007bffffffffffffffffffffffffffffffffffffffffffffffffffffffff1916827bffffffffffffffffffffffffffffffffffffffffffffffffffffffff1916145b8061082a5750620ff72160e01b827bffffffffffffffffffffffffffffffffffffffffffffffffffffffff1916145b8061089257507f7965db0b000000000000000000000000000000000000000000000000000000007bffffffffffffffffffffffffffffffffffffffffffffffffffffffff1916827bffffffffffffffffffffffffffffffffffffffffffffffffffffffff1916145b806108a257506108a1826115ec565b5b9050919050565b6060600080546108b890613f3d565b80601f01602080910402602001604051908101604052809291908181526020018280546108e490613f3d565b80156109315780601f1061090657610100808354040283529160200191610931565b820191906000526020600020905b81548152906001019060200180831161091457829003601f168201915b5050505050905090565b600061094682611666565b610985576040517f08c379a000000000000000000000000000000000000000000000000000000000815260040161097c90613b79565b60405180910390fd5b6004600083815260200190815260200160002060009054906101000a900473ffffffffffffffffffffffffffffffffffffffff169050919050565b60006109cb82610dcc565b90508073ffffffffffffffffffffffffffffffffffffffff168373ffffffffffffffffffffffffffffffffffffffff161415610a3c576040517f08c379a0000000000000000000000000000000000000000000000000000000008152600401610a3390613bd9565b60405180910390fd5b8073ffffffffffffffffffffffffffffffffffffffff16610a5b6116d2565b73ffffffffffffffffffffffffffffffffffffffff161480610a8a5750610a8981610a846116d2565b611460565b5b610ac9576040517f08c379a0000000000000000000000000000000000000000000000000000000008152600401610ac090613ab9565b60405180910390fd5b610ad383836116da565b505050565b7f73e573f9566d61418a34d5de3ff49360f9c51fec37f7486551670290f6285dab610b0281611793565b610b0c83836117a7565b505050565b610b22610b1c6116d2565b8261181b565b610b61576040517f08c379a0000000000000000000000000000000000000000000000000000000008152600401610b5890613c19565b60405180910390fd5b610b6c8383836118f9565b505050565b600060086000838152602001908152602001600020600101549050919050565b7f3c11d16cbaffd01df69ce1c404f6340ee057498f5f00246190ea54220576a84881565b600080600b60009054906101000a900473ffffffffffffffffffffffffffffffffffffffff16600085610be89190613dc5565b612710600c5486610bf99190613dc5565b610c039190613d94565b610c0d9190613d3e565b915091509250929050565b610c2182610b71565b610c2a81611793565b610c348383611b60565b505050565b610c416116d2565b73ffffffffffffffffffffffffffffffffffffffff168173ffffffffffffffffffffffffffffffffffffffff1614610cae576040517f08c379a0000000000000000000000000000000000000000000000000000000008152600401610ca590613c39565b60405180910390fd5b610cb88282611c41565b5050565b610cc46116d2565b73ffffffffffffffffffffffffffffffffffffffff16610ce26110d2565b73ffffffffffffffffffffffffffffffffffffffff1614610d38576040517f08c379a0000000000000000000000000000000000000000000000000000000008152600401610d2f90613b99565b60405180910390fd5b8073ffffffffffffffffffffffffffffffffffffffff16ff5b610d6c83838360405180602001604052806000815250611216565b505050565b7f3c11d16cbaffd01df69ce1c404f6340ee057498f5f00246190ea54220576a848610d9b81611793565b610da482611d23565b5050565b7f73e573f9566d61418a34d5de3ff49360f9c51fec37f7486551670290f6285dab81565b6000806002600084815260200190815260200160002060009054906101000a900473ffffffffffffffffffffffffffffffffffffffff169050600073ffffffffffffffffffffffffffffffffffffffff168173ffffffffffffffffffffffffffffffffffffffff161415610e75576040517f08c379a0000000000000000000000000000000000000000000000000000000008152600401610e6c90613af9565b60405180910390fd5b80915050919050565b7f73e573f9566d61418a34d5de3ff49360f9c51fec37f7486551670290f6285dab610ea881611793565b8160099080519060200190610ebe929190612e36565b505050565b60008073ffffffffffffffffffffffffffffffffffffffff168273ffffffffffffffffffffffffffffffffffffffff161415610f34576040517f08c379a0000000000000000000000000000000000000000000000000000000008152600401610f2b90613ad9565b60405180910390fd5b600360008373ffffffffffffffffffffffffffffffffffffffff1673ffffffffffffffffffffffffffffffffffffffff168152602001908152602001600020549050919050565b610f836116d2565b73ffffffffffffffffffffffffffffffffffffffff16610fa16110d2565b73ffffffffffffffffffffffffffffffffffffffff1614610ff7576040517f08c379a0000000000000000000000000000000000000000000000000000000008152600401610fee90613b99565b60405180910390fd5b6110016000611d2f565b565b7f73e573f9566d61418a34d5de3ff49360f9c51fec37f7486551670290f6285dab61102d81611793565b81600a9080519060200190611043929190612e36565b505050565b6110506116d2565b73ffffffffffffffffffffffffffffffffffffffff1661106e6110d2565b73ffffffffffffffffffffffffffffffffffffffff16146110c4576040517f08c379a00000000000000000000000000000000000000000000000000000000081526004016110bb90613b99565b60405180910390fd5b6110ce8282611df5565b5050565b6000600760009054906101000a900473ffffffffffffffffffffffffffffffffffffffff16905090565b60006008600084815260200190815260200160002060000160008373ffffffffffffffffffffffffffffffffffffffff1673ffffffffffffffffffffffffffffffffffffffff16815260200190815260200160002060009054906101000a900460ff16905092915050565b60606001805461117690613f3d565b80601f01602080910402602001604051908101604052809291908181526020018280546111a290613f3d565b80156111ef5780601f106111c4576101008083540402835291602001916111ef565b820191906000526020600020905b8154815290600101906020018083116111d257829003601f168201915b5050505050905090565b6000801b81565b61121261120b6116d2565b8383611eb1565b5050565b6112276112216116d2565b8361181b565b611266576040517f08c379a000000000000000000000000000000000000000000000000000000000815260040161125d90613c19565b60405180910390fd5b6112728484848461201e565b50505050565b60606112838261207a565b9050919050565b7f9f2df0fed2c77648de5860a4cc508cd0818c85b8b8a1ab4ceeef8d981c8956a66112b481611793565b60006112c0600d6121cc565b90506112cc600d6121da565b6112d684826121f0565b6112e081846117a7565b50505050565b7f9f2df0fed2c77648de5860a4cc508cd0818c85b8b8a1ab4ceeef8d981c8956a681565b61131382610b71565b61131c81611793565b6113268383611c41565b505050565b60606009805461133a90613f3d565b80601f016020809104026020016040519081016040528092919081815260200182805461136690613f3d565b80156113b35780601f10611388576101008083540402835291602001916113b3565b820191906000526020600020905b81548152906001019060200180831161139657829003601f168201915b5050505050905090565b60006113c9600d6121cc565b905090565b6060600a80546113dd90613f3d565b80601f016020809104026020016040519081016040528092919081815260200182805461140990613f3d565b80156114565780601f1061142b57610100808354040283529160200191611456565b820191906000526020600020905b81548152906001019060200180831161143957829003601f168201915b5050505050905090565b6000600560008473ffffffffffffffffffffffffffffffffffffffff1673ffffffffffffffffffffffffffffffffffffffff16815260200190815260200160002060008373ffffffffffffffffffffffffffffffffffffffff1673ffffffffffffffffffffffffffffffffffffffff16815260200190815260200160002060009054906101000a900460ff16905092915050565b6114fc6116d2565b73ffffffffffffffffffffffffffffffffffffffff1661151a6110d2565b73ffffffffffffffffffffffffffffffffffffffff1614611570576040517f08c379a000000000000000000000000000000000000000000000000000000000815260040161156790613b99565b60405180910390fd5b600073ffffffffffffffffffffffffffffffffffffffff168173ffffffffffffffffffffffffffffffffffffffff1614156115e0576040517f08c379a00000000000000000000000000000000000000000000000000000000081526004016115d7906139f9565b60405180910390fd5b6115e981611d2f565b50565b60007f7965db0b000000000000000000000000000000000000000000000000000000007bffffffffffffffffffffffffffffffffffffffffffffffffffffffff1916827bffffffffffffffffffffffffffffffffffffffffffffffffffffffff1916148061165f575061165e8261220e565b5b9050919050565b60008073ffffffffffffffffffffffffffffffffffffffff166002600084815260200190815260200160002060009054906101000a900473ffffffffffffffffffffffffffffffffffffffff1673ffffffffffffffffffffffffffffffffffffffff1614159050919050565b600033905090565b816004600083815260200190815260200160002060006101000a81548173ffffffffffffffffffffffffffffffffffffffff021916908373ffffffffffffffffffffffffffffffffffffffff160217905550808273ffffffffffffffffffffffffffffffffffffffff1661174d83610dcc565b73ffffffffffffffffffffffffffffffffffffffff167f8c5be1e5ebec7d5bd14f71427d1e84f3dd0314c0f7b2291e5b200ac8c7c3b92560405160405180910390a45050565b6117a48161179f6116d2565b6122f0565b50565b6117b082611666565b6117ef576040517f08c379a00000000000000000000000000000000000000000000000000000000081526004016117e690613b19565b60405180910390fd5b80600660008481526020019081526020016000209080519060200190611816929190612e36565b505050565b600061182682611666565b611865576040517f08c379a000000000000000000000000000000000000000000000000000000000815260040161185c90613a99565b60405180910390fd5b600061187083610dcc565b90508073ffffffffffffffffffffffffffffffffffffffff168473ffffffffffffffffffffffffffffffffffffffff1614806118b257506118b18185611460565b5b806118f057508373ffffffffffffffffffffffffffffffffffffffff166118d88461093b565b73ffffffffffffffffffffffffffffffffffffffff16145b91505092915050565b8273ffffffffffffffffffffffffffffffffffffffff1661191982610dcc565b73ffffffffffffffffffffffffffffffffffffffff161461196f576040517f08c379a000000000000000000000000000000000000000000000000000000000815260040161196690613a19565b60405180910390fd5b600073ffffffffffffffffffffffffffffffffffffffff168273ffffffffffffffffffffffffffffffffffffffff1614156119df576040517f08c379a00000000000000000000000000000000000000000000000000000000081526004016119d690613a59565b60405180910390fd5b6119ea83838361238d565b6119f56000826116da565b6001600360008573ffffffffffffffffffffffffffffffffffffffff1673ffffffffffffffffffffffffffffffffffffffff1681526020019081526020016000206000828254611a459190613e1f565b925050819055506001600360008473ffffffffffffffffffffffffffffffffffffffff1673ffffffffffffffffffffffffffffffffffffffff1681526020019081526020016000206000828254611a9c9190613d3e565b92505081905550816002600083815260200190815260200160002060006101000a81548173ffffffffffffffffffffffffffffffffffffffff021916908373ffffffffffffffffffffffffffffffffffffffff160217905550808273ffffffffffffffffffffffffffffffffffffffff168473ffffffffffffffffffffffffffffffffffffffff167fddf252ad1be2c89b69c2b068fc378daa952ba7f163c4a11628f55a4df523b3ef60405160405180910390a4611b5b838383612392565b505050565b611b6a82826110fc565b611c3d5760016008600084815260200190815260200160002060000160008373ffffffffffffffffffffffffffffffffffffffff1673ffffffffffffffffffffffffffffffffffffffff16815260200190815260200160002060006101000a81548160ff021916908315150217905550611be26116d2565b73ffffffffffffffffffffffffffffffffffffffff168173ffffffffffffffffffffffffffffffffffffffff16837f2f8788117e7eff1d82e926ec794901d17c78024a50270940304540a733656f0d60405160405180910390a45b5050565b611c4b82826110fc565b15611d1f5760006008600084815260200190815260200160002060000160008373ffffffffffffffffffffffffffffffffffffffff1673ffffffffffffffffffffffffffffffffffffffff16815260200190815260200160002060006101000a81548160ff021916908315150217905550611cc46116d2565b73ffffffffffffffffffffffffffffffffffffffff168173ffffffffffffffffffffffffffffffffffffffff16837ff6391f5c32d9c69d2a47ea670b442974b53935d1edc7fd64eb21e047a839171b60405160405180910390a45b5050565b611d2c81612397565b50565b6000600760009054906101000a900473ffffffffffffffffffffffffffffffffffffffff16905081600760006101000a81548173ffffffffffffffffffffffffffffffffffffffff021916908373ffffffffffffffffffffffffffffffffffffffff1602179055508173ffffffffffffffffffffffffffffffffffffffff168173ffffffffffffffffffffffffffffffffffffffff167f8be0079c531659141344cd1fd0a4f28419497f9722a3daafe3b4186f6b6457e060405160405180910390a35050565b600073ffffffffffffffffffffffffffffffffffffffff168273ffffffffffffffffffffffffffffffffffffffff161415611e65576040517f08c379a0000000000000000000000000000000000000000000000000000000008152600401611e5c90613bf9565b60405180910390fd5b81600b60006101000a81548173ffffffffffffffffffffffffffffffffffffffff021916908373ffffffffffffffffffffffffffffffffffffffff16021790555080600c819055505050565b8173ffffffffffffffffffffffffffffffffffffffff168373ffffffffffffffffffffffffffffffffffffffff161415611f20576040517f08c379a0000000000000000000000000000000000000000000000000000000008152600401611f1790613a79565b60405180910390fd5b80600560008573ffffffffffffffffffffffffffffffffffffffff1673ffffffffffffffffffffffffffffffffffffffff16815260200190815260200160002060008473ffffffffffffffffffffffffffffffffffffffff1673ffffffffffffffffffffffffffffffffffffffff16815260200190815260200160002060006101000a81548160ff0219169083151502179055508173ffffffffffffffffffffffffffffffffffffffff168373ffffffffffffffffffffffffffffffffffffffff167f17307eab39ab6107e8899845ad3d59bd9653f200f220920489ca2b5937696c31836040516120119190613961565b60405180910390a3505050565b6120298484846118f9565b612035848484846123ea565b612074576040517f08c379a000000000000000000000000000000000000000000000000000000000815260040161206b906139d9565b60405180910390fd5b50505050565b606061208582611666565b6120c4576040517f08c379a00000000000000000000000000000000000000000000000000000000081526004016120bb90613b59565b60405180910390fd5b60006006600084815260200190815260200160002080546120e490613f3d565b80601f016020809104026020016040519081016040528092919081815260200182805461211090613f3d565b801561215d5780601f106121325761010080835404028352916020019161215d565b820191906000526020600020905b81548152906001019060200180831161214057829003601f168201915b50505050509050600061216e612581565b90506000815114156121845781925050506121c7565b6000825111156121b95780826040516020016121a1929190613873565b604051602081830303815290604052925050506121c7565b6121c284612613565b925050505b919050565b600081600001549050919050565b6001816000016000828254019250508190555050565b61220a8282604051806020016040528060008152506126ba565b5050565b60007f80ac58cd000000000000000000000000000000000000000000000000000000007bffffffffffffffffffffffffffffffffffffffffffffffffffffffff1916827bffffffffffffffffffffffffffffffffffffffffffffffffffffffff191614806122d957507f5b5e139f000000000000000000000000000000000000000000000000000000007bffffffffffffffffffffffffffffffffffffffffffffffffffffffff1916827bffffffffffffffffffffffffffffffffffffffffffffffffffffffff1916145b806122e957506122e882612715565b5b9050919050565b6122fa82826110fc565b6123895761231f8173ffffffffffffffffffffffffffffffffffffffff16601461277f565b61232d8360001c602061277f565b60405160200161233e929190613897565b6040516020818303038152906040526040517f08c379a00000000000000000000000000000000000000000000000000000000081526004016123809190613997565b60405180910390fd5b5050565b505050565b505050565b6123a0816129bb565b60006006600083815260200190815260200160002080546123c090613f3d565b9050146123e7576006600082815260200190815260200160002060006123e69190612ebc565b5b50565b600061240b8473ffffffffffffffffffffffffffffffffffffffff16612ad8565b15612574578373ffffffffffffffffffffffffffffffffffffffff1663150b7a026124346116d2565b8786866040518563ffffffff1660e01b815260040161245694939291906138ec565b602060405180830381600087803b15801561247057600080fd5b505af19250505080156124a157506040513d601f19601f8201168201806040525081019061249e9190613330565b60015b612524573d80600081146124d1576040519150601f19603f3d011682016040523d82523d6000602084013e6124d6565b606091505b5060008151141561251c576040517f08c379a0000000000000000000000000000000000000000000000000000000008152600401612513906139d9565b60405180910390fd5b805181602001fd5b63150b7a0260e01b7bffffffffffffffffffffffffffffffffffffffffffffffffffffffff1916817bffffffffffffffffffffffffffffffffffffffffffffffffffffffff191614915050612579565b600190505b949350505050565b60606009805461259090613f3d565b80601f01602080910402602001604051908101604052809291908181526020018280546125bc90613f3d565b80156126095780601f106125de57610100808354040283529160200191612609565b820191906000526020600020905b8154815290600101906020018083116125ec57829003601f168201915b5050505050905090565b606061261e82611666565b61265d576040517f08c379a000000000000000000000000000000000000000000000000000000000815260040161265490613bb9565b60405180910390fd5b6000612667612581565b9050600081511161268757604051806020016040528060008152506126b2565b8061269184612afb565b6040516020016126a2929190613873565b6040516020818303038152906040525b915050919050565b6126c48383612c5c565b6126d160008484846123ea565b612710576040517f08c379a0000000000000000000000000000000000000000000000000000000008152600401612707906139d9565b60405180910390fd5b505050565b60007f01ffc9a7000000000000000000000000000000000000000000000000000000007bffffffffffffffffffffffffffffffffffffffffffffffffffffffff1916827bffffffffffffffffffffffffffffffffffffffffffffffffffffffff1916149050919050565b6060600060028360026127929190613dc5565b61279c9190613d3e565b67ffffffffffffffff8111156127b5576127b46140d6565b5b6040519080825280601f01601f1916602001820160405280156127e75781602001600182028036833780820191505090505b5090507f30000000000000000000000000000000000000000000000000000000000000008160008151811061281f5761281e6140a7565b5b60200101907effffffffffffffffffffffffffffffffffffffffffffffffffffffffffffff1916908160001a9053507f780000000000000000000000000000000000000000000000000000000000000081600181518110612883576128826140a7565b5b60200101907effffffffffffffffffffffffffffffffffffffffffffffffffffffffffffff1916908160001a905350600060018460026128c39190613dc5565b6128cd9190613d3e565b90505b600181111561296d577f3031323334353637383961626364656600000000000000000000000000000000600f86166010811061290f5761290e6140a7565b5b1a60f81b828281518110612926576129256140a7565b5b60200101907effffffffffffffffffffffffffffffffffffffffffffffffffffffffffffff1916908160001a905350600485901c94508061296690613f13565b90506128d0565b50600084146129b1576040517f08c379a00000000000000000000000000000000000000000000000000000000081526004016129a8906139b9565b60405180910390fd5b8091505092915050565b60006129c682610dcc565b90506129d48160008461238d565b6129df6000836116da565b6001600360008373ffffffffffffffffffffffffffffffffffffffff1673ffffffffffffffffffffffffffffffffffffffff1681526020019081526020016000206000828254612a2f9190613e1f565b925050819055506002600083815260200190815260200160002060006101000a81549073ffffffffffffffffffffffffffffffffffffffff021916905581600073ffffffffffffffffffffffffffffffffffffffff168273ffffffffffffffffffffffffffffffffffffffff167fddf252ad1be2c89b69c2b068fc378daa952ba7f163c4a11628f55a4df523b3ef60405160405180910390a4612ad481600084612392565b5050565b6000808273ffffffffffffffffffffffffffffffffffffffff163b119050919050565b60606000821415612b43576040518060400160405280600181526020017f30000000000000000000000000000000000000000000000000000000000000008152509050612c57565b600082905060005b60008214612b75578080612b5e90613fa0565b915050600a82612b6e9190613d94565b9150612b4b565b60008167ffffffffffffffff811115612b9157612b906140d6565b5b6040519080825280601f01601f191660200182016040528015612bc35781602001600182028036833780820191505090505b5090505b60008514612c5057600182612bdc9190613e1f565b9150600a85612beb9190613fe9565b6030612bf79190613d3e565b60f81b818381518110612c0d57612c0c6140a7565b5b60200101907effffffffffffffffffffffffffffffffffffffffffffffffffffffffffffff1916908160001a905350600a85612c499190613d94565b9450612bc7565b8093505050505b919050565b600073ffffffffffffffffffffffffffffffffffffffff168273ffffffffffffffffffffffffffffffffffffffff161415612ccc576040517f08c379a0000000000000000000000000000000000000000000000000000000008152600401612cc390613b39565b60405180910390fd5b612cd581611666565b15612d15576040517f08c379a0000000000000000000000000000000000000000000000000000000008152600401612d0c90613a39565b60405180910390fd5b612d216000838361238d565b6001600360008473ffffffffffffffffffffffffffffffffffffffff1673ffffffffffffffffffffffffffffffffffffffff1681526020019081526020016000206000828254612d719190613d3e565b92505081905550816002600083815260200190815260200160002060006101000a81548173ffffffffffffffffffffffffffffffffffffffff021916908373ffffffffffffffffffffffffffffffffffffffff160217905550808273ffffffffffffffffffffffffffffffffffffffff16600073ffffffffffffffffffffffffffffffffffffffff167fddf252ad1be2c89b69c2b068fc378daa952ba7f163c4a11628f55a4df523b3ef60405160405180910390a4612e3260008383612392565b5050565b828054612e4290613f3d565b90600052602060002090601f016020900481019282612e645760008555612eab565b82601f10612e7d57805160ff1916838001178555612eab565b82800160010185558215612eab579182015b82811115612eaa578251825591602001919060010190612e8f565b5b509050612eb89190612efc565b5090565b508054612ec890613f3d565b6000825580601f10612eda5750612ef9565b601f016020900490600052602060002090810190612ef89190612efc565b5b50565b5b80821115612f15576000816000905550600101612efd565b5090565b6000612f2c612f2784613c99565b613c74565b905082815260208101848484011115612f4857612f4761410a565b5b612f53848285613ed1565b509392505050565b6000612f6e612f6984613cca565b613c74565b905082815260208101848484011115612f8a57612f8961410a565b5b612f95848285613ed1565b509392505050565b600081359050612fac81614739565b92915050565b600081359050612fc181614750565b92915050565b600081359050612fd681614767565b92915050565b600081359050612feb8161477e565b92915050565b6000815190506130008161477e565b92915050565b600082601f83011261301b5761301a614105565b5b813561302b848260208601612f19565b91505092915050565b600082601f83011261304957613048614105565b5b8135613059848260208601612f5b565b91505092915050565b60008135905061307181614795565b92915050565b60006020828403121561308d5761308c614114565b5b600061309b84828501612f9d565b91505092915050565b600080604083850312156130bb576130ba614114565b5b60006130c985828601612f9d565b92505060206130da85828601612f9d565b9150509250929050565b6000806000606084860312156130fd576130fc614114565b5b600061310b86828701612f9d565b935050602061311c86828701612f9d565b925050604061312d86828701613062565b9150509250925092565b6000806000806080858703121561315157613150614114565b5b600061315f87828801612f9d565b945050602061317087828801612f9d565b935050604061318187828801613062565b925050606085013567ffffffffffffffff8111156131a2576131a161410f565b5b6131ae87828801613006565b91505092959194509250565b600080604083850312156131d1576131d0614114565b5b60006131df85828601612f9d565b92505060206131f085828601612fb2565b9150509250929050565b6000806040838503121561321157613210614114565b5b600061321f85828601612f9d565b925050602083013567ffffffffffffffff8111156132405761323f61410f565b5b61324c85828601613034565b9150509250929050565b6000806040838503121561326d5761326c614114565b5b600061327b85828601612f9d565b925050602061328c85828601613062565b9150509250929050565b6000602082840312156132ac576132ab614114565b5b60006132ba84828501612fc7565b91505092915050565b600080604083850312156132da576132d9614114565b5b60006132e885828601612fc7565b92505060206132f985828601612f9d565b9150509250929050565b60006020828403121561331957613318614114565b5b600061332784828501612fdc565b91505092915050565b60006020828403121561334657613345614114565b5b600061335484828501612ff1565b91505092915050565b60006020828403121561337357613372614114565b5b600082013567ffffffffffffffff8111156133915761339061410f565b5b61339d84828501613034565b91505092915050565b6000602082840312156133bc576133bb614114565b5b60006133ca84828501613062565b91505092915050565b600080604083850312156133ea576133e9614114565b5b60006133f885828601613062565b925050602083013567ffffffffffffffff8111156134195761341861410f565b5b61342585828601613034565b9150509250929050565b6000806040838503121561344657613445614114565b5b600061345485828601613062565b925050602061346585828601613062565b9150509250929050565b61347881613e53565b82525050565b61348781613e65565b82525050565b61349681613e71565b82525050565b60006134a782613cfb565b6134b18185613d11565b93506134c1818560208601613ee0565b6134ca81614119565b840191505092915050565b60006134e082613d06565b6134ea8185613d22565b93506134fa818560208601613ee0565b61350381614119565b840191505092915050565b600061351982613d06565b6135238185613d33565b9350613533818560208601613ee0565b80840191505092915050565b600061354c602083613d22565b91506135578261412a565b602082019050919050565b600061356f603283613d22565b915061357a82614153565b604082019050919050565b6000613592602683613d22565b915061359d826141a2565b604082019050919050565b60006135b5602583613d22565b91506135c0826141f1565b604082019050919050565b60006135d8601c83613d22565b91506135e382614240565b602082019050919050565b60006135fb602483613d22565b915061360682614269565b604082019050919050565b600061361e601983613d22565b9150613629826142b8565b602082019050919050565b6000613641602c83613d22565b915061364c826142e1565b604082019050919050565b6000613664603883613d22565b915061366f82614330565b604082019050919050565b6000613687602a83613d22565b91506136928261437f565b604082019050919050565b60006136aa602983613d22565b91506136b5826143ce565b604082019050919050565b60006136cd602e83613d22565b91506136d88261441d565b604082019050919050565b60006136f0602083613d22565b91506136fb8261446c565b602082019050919050565b6000613713603183613d22565b915061371e82614495565b604082019050919050565b6000613736602c83613d22565b9150613741826144e4565b604082019050919050565b6000613759602083613d22565b915061376482614533565b602082019050919050565b600061377c602f83613d22565b91506137878261455c565b604082019050919050565b600061379f602183613d22565b91506137aa826145ab565b604082019050919050565b60006137c2602c83613d22565b91506137cd826145fa565b604082019050919050565b60006137e5603183613d22565b91506137f082614649565b604082019050919050565b6000613808601783613d33565b915061381382614698565b601782019050919050565b600061382b601183613d33565b9150613836826146c1565b601182019050919050565b600061384e602f83613d22565b9150613859826146ea565b604082019050919050565b61386d81613ec7565b82525050565b600061387f828561350e565b915061388b828461350e565b91508190509392505050565b60006138a2826137fb565b91506138ae828561350e565b91506138b98261381e565b91506138c5828461350e565b91508190509392505050565b60006020820190506138e6600083018461346f565b92915050565b6000608082019050613901600083018761346f565b61390e602083018661346f565b61391b6040830185613864565b818103606083015261392d818461349c565b905095945050505050565b600060408201905061394d600083018561346f565b61395a6020830184613864565b9392505050565b6000602082019050613976600083018461347e565b92915050565b6000602082019050613991600083018461348d565b92915050565b600060208201905081810360008301526139b181846134d5565b905092915050565b600060208201905081810360008301526139d28161353f565b9050919050565b600060208201905081810360008301526139f281613562565b9050919050565b60006020820190508181036000830152613a1281613585565b9050919050565b60006020820190508181036000830152613a32816135a8565b9050919050565b60006020820190508181036000830152613a52816135cb565b9050919050565b60006020820190508181036000830152613a72816135ee565b9050919050565b60006020820190508181036000830152613a9281613611565b9050919050565b60006020820190508181036000830152613ab281613634565b9050919050565b60006020820190508181036000830152613ad281613657565b9050919050565b60006020820190508181036000830152613af28161367a565b9050919050565b60006020820190508181036000830152613b128161369d565b9050919050565b60006020820190508181036000830152613b32816136c0565b9050919050565b60006020820190508181036000830152613b52816136e3565b9050919050565b60006020820190508181036000830152613b7281613706565b9050919050565b60006020820190508181036000830152613b9281613729565b9050919050565b60006020820190508181036000830152613bb28161374c565b9050919050565b60006020820190508181036000830152613bd28161376f565b9050919050565b60006020820190508181036000830152613bf281613792565b9050919050565b60006020820190508181036000830152613c12816137b5565b9050919050565b60006020820190508181036000830152613c32816137d8565b9050919050565b60006020820190508181036000830152613c5281613841565b9050919050565b6000602082019050613c6e6000830184613864565b92915050565b6000613c7e613c8f565b9050613c8a8282613f6f565b919050565b6000604051905090565b600067ffffffffffffffff821115613cb457613cb36140d6565b5b613cbd82614119565b9050602081019050919050565b600067ffffffffffffffff821115613ce557613ce46140d6565b5b613cee82614119565b9050602081019050919050565b600081519050919050565b600081519050919050565b600082825260208201905092915050565b600082825260208201905092915050565b600081905092915050565b6000613d4982613ec7565b9150613d5483613ec7565b9250827fffffffffffffffffffffffffffffffffffffffffffffffffffffffffffffffff03821115613d8957613d8861401a565b5b828201905092915050565b6000613d9f82613ec7565b9150613daa83613ec7565b925082613dba57613db9614049565b5b828204905092915050565b6000613dd082613ec7565b9150613ddb83613ec7565b9250817fffffffffffffffffffffffffffffffffffffffffffffffffffffffffffffffff0483118215151615613e1457613e1361401a565b5b828202905092915050565b6000613e2a82613ec7565b9150613e3583613ec7565b925082821015613e4857613e4761401a565b5b828203905092915050565b6000613e5e82613ea7565b9050919050565b60008115159050919050565b6000819050919050565b60007fffffffff0000000000000000000000000000000000000000000000000000000082169050919050565b600073ffffffffffffffffffffffffffffffffffffffff82169050919050565b6000819050919050565b82818337600083830152505050565b60005b83811015613efe578082015181840152602081019050613ee3565b83811115613f0d576000848401525b50505050565b6000613f1e82613ec7565b91506000821415613f3257613f3161401a565b5b600182039050919050565b60006002820490506001821680613f5557607f821691505b60208210811415613f6957613f68614078565b5b50919050565b613f7882614119565b810181811067ffffffffffffffff82111715613f9757613f966140d6565b5b80604052505050565b6000613fab82613ec7565b91507fffffffffffffffffffffffffffffffffffffffffffffffffffffffffffffffff821415613fde57613fdd61401a565b5b600182019050919050565b6000613ff482613ec7565b9150613fff83613ec7565b92508261400f5761400e614049565b5b828206905092915050565b7f4e487b7100000000000000000000000000000000000000000000000000000000600052601160045260246000fd5b7f4e487b7100000000000000000000000000000000000000000000000000000000600052601260045260246000fd5b7f4e487b7100000000000000000000000000000000000000000000000000000000600052602260045260246000fd5b7f4e487b7100000000000000000000000000000000000000000000000000000000600052603260045260246000fd5b7f4e487b7100000000000000000000000000000000000000000000000000000000600052604160045260246000fd5b600080fd5b600080fd5b600080fd5b600080fd5b6000601f19601f8301169050919050565b7f537472696e67733a20686578206c656e67746820696e73756666696369656e74600082015250565b7f4552433732313a207472616e7366657220746f206e6f6e20455243373231526560008201527f63656976657220696d706c656d656e7465720000000000000000000000000000602082015250565b7f4f776e61626c653a206e6577206f776e657220697320746865207a65726f206160008201527f6464726573730000000000000000000000000000000000000000000000000000602082015250565b7f4552433732313a207472616e736665722066726f6d20696e636f72726563742060008201527f6f776e6572000000000000000000000000000000000000000000000000000000602082015250565b7f4552433732313a20746f6b656e20616c7265616479206d696e74656400000000600082015250565b7f4552433732313a207472616e7366657220746f20746865207a65726f2061646460008201527f7265737300000000000000000000000000000000000000000000000000000000602082015250565b7f4552433732313a20617070726f766520746f2063616c6c657200000000000000600082015250565b7f4552433732313a206f70657261746f7220717565727920666f72206e6f6e657860008201527f697374656e7420746f6b656e0000000000000000000000000000000000000000602082015250565b7f4552433732313a20617070726f76652063616c6c6572206973206e6f74206f7760008201527f6e6572206e6f7220617070726f76656420666f7220616c6c0000000000000000602082015250565b7f4552433732313a2062616c616e636520717565727920666f7220746865207a6560008201527f726f206164647265737300000000000000000000000000000000000000000000602082015250565b7f4552433732313a206f776e657220717565727920666f72206e6f6e657869737460008201527f656e7420746f6b656e0000000000000000000000000000000000000000000000602082015250565b7f45524337323155524953746f726167653a2055524920736574206f66206e6f6e60008201527f6578697374656e7420746f6b656e000000000000000000000000000000000000602082015250565b7f4552433732313a206d696e7420746f20746865207a65726f2061646472657373600082015250565b7f45524337323155524953746f726167653a2055524920717565727920666f722060008201527f6e6f6e6578697374656e7420746f6b656e000000000000000000000000000000602082015250565b7f4552433732313a20617070726f76656420717565727920666f72206e6f6e657860008201527f697374656e7420746f6b656e0000000000000000000000000000000000000000602082015250565b7f4f776e61626c653a2063616c6c6572206973206e6f7420746865206f776e6572600082015250565b7f4552433732314d657461646174613a2055524920717565727920666f72206e6f60008201527f6e6578697374656e7420746f6b656e0000000000000000000000000000000000602082015250565b7f4552433732313a20617070726f76616c20746f2063757272656e74206f776e6560008201527f7200000000000000000000000000000000000000000000000000000000000000602082015250565b7f526f79616c746965733a206e657720726563697069656e74206973207468652060008201527f7a65726f20616464726573730000000000000000000000000000000000000000602082015250565b7f4552433732313a207472616e736665722063616c6c6572206973206e6f74206f60008201527f776e6572206e6f7220617070726f766564000000000000000000000000000000602082015250565b7f416363657373436f6e74726f6c3a206163636f756e7420000000000000000000600082015250565b7f206973206d697373696e6720726f6c6520000000000000000000000000000000600082015250565b7f416363657373436f6e74726f6c3a2063616e206f6e6c792072656e6f756e636560008201527f20726f6c657320666f722073656c660000000000000000000000000000000000602082015250565b61474281613e53565b811461474d57600080fd5b50565b61475981613e65565b811461476457600080fd5b50565b61477081613e71565b811461477b57600080fd5b50565b61478781613e7b565b811461479257600080fd5b50565b61479e81613ec7565b81146147a957600080fd5b5056fea264697066735822122068a5cc269b16f2680eac71a9e51db6f20f84158e72dd4ac9d1161a53af2f514964736f6c6343000805003368747470733a2f2f697066732e66616e666972652e61692f697066732f516d58774a557968774d314d4c55524e4c6370746e4b7133686750386e4856756e524b59585267345a685a644b322f636f6c6c656374696f6e2e6a736f6e68747470733a2f2f697066732e66616e666972652e61692f697066732f516d58774a557968774d314d4c55524e4c6370746e4b7133686750386e4856756e524b59585267345a685a644b322f",
  "linkReferences": {},
  "deployedLinkReferences": {}
}